:020000040800F2
:08000000005000206905000812
:0400080000000000F4
:08000C00940000000100000057
:040014003000002098
:100018000348044B834202D0034B03B1184770478F
:100028006004002060040020000000000548064924
:100038000B1AD90F01EBA301491002D0034B03B1EE
:10004800184770476004002060040020000000008A
:1000580010B5064C237843B9FFF7DAFF044B13B108
:100068000448AFF300800123237010BD0000002076
:10007800000000000800000808B5044B1BB1044943
:100088000448AFF30080BDE80840CFE70000000057
:100098000400002008000008A3F5803A704700BF5C
:1000A800154B002B08BF114B9D46FFF7F5FF0021AC
:1000B8008B460F461148124A121A00F0C1FA0C4B2F
:1000C800002B00D098470B4B002B00D098470020FE
:1000D800002104000D000B4800F05EFA00F08CFAD5
:1000E8002000290000F014F900F05CFA0000080074
:1000F80000000000000000000000000000000020D8
:1001080020000020CD05000880B584B000AF7860DD
:100118003960786800F02BFAF860FA683B68134396
:10012800FB60F968786800F020FA00BF1037BD4618
:1001380080BD80B584B000AF78603960786800F021
:1001480016FAF860FA683B681340FB60F96878684B
:1001580000F00BFA00BF1037BD4680BD80B584B0F3
:1001680000AF78600023BB601FE0154BFB604FF4C5
:100178000051144800F0F9F902E0F86800F0F9F9C4
:10018800FB685A1EFA60002BF7D10D4BFB604FF04D
:1001980000510C4800F0E9F902E0F86800F0E9F9CC
:1001A800FB685A1EFA60002BF7D1BB685A1CBA606C
:1001B8007A689A42D9D800BF00BF1037BD4680BDC3
:1001C800400D03001010014080B485B000AF786086
:1001D8000A4B1B68002B02D1084B094A1A60074BCF
:1001E8001B68FB60054B1A687B681344034A13605D
:1001F800FB6818461437BD4680BC70471C000020B9
:10020800E404002080B483B000AF78604FF0FF337F
:1002180018460C37BD4680BC704780B483B000AF29
:10022800786039603B684FF400525A6000231846E2
:100238000C37BD4680BC704780B483B000AF78608F
:10024800012318460C37BD4680BC704780B485B082
:1002580000AFF860B9607A60002318461437BD46CD
:1002680080BC704780B483B000AF786000BE00BF28
:100278000C37BD4680BC704780B483B000AF78604F
:10028800396000BF0C37BD4680BC704780B400AFF2
:100298004FF0FF331846BD4680BC704780B487B026
:1002A80000AFF860B9607A6000237B61FB68012BBE
:1002B8000BD0FB68022B08D0FB68032B05D04FF04E
:1002C800FF3306E07B68013B7B607B68002BF9D13C
:1002D8007B6918461C37BD4680BC704780B487B020
:1002E80000AFF860B9607A6000237B61FB68002B7F
:1002F80005D04FF0FF3306E07B68013B7B607B68ED
:10030800002BF9DC7B6918461C37BD4680BC70475A
:1003180080B584B000AF73497348FFF70AFF73498B
:100328007348FFF706FF6FF480217148FFF701FF5C
:100338006FF4FE016E48FFF7FCFE4FF480316C4805
:10034800FFF7E2FE6A4800F012F9034603F40033AF
:10035800002B00D1F6E700BF10216648FFF7D4FE56
:100368006FF003016348FFF7E4FE00216148FFF7DF
:10037800CBFE00215C48FFF7C7FE00215A48FFF773
:10038800C3FE00215848FFF7BFFE6FF0030156482F
:10039800FFF7CFFE01215448FFF7B6FE524800F0A0
:1003A800E6F8034603F00C03002B00D1F6E700BF84
:1003B8004FF400315048FFF7A7FE01214F48FFF7DF
:1003C800A3FE04214D48FFF79FFE10214B48FFF77D
:1003D8009BFE6FF440114A48FFF7ABFE4FF48011C3
:1003E8004748FFF791FE6FF440014548FFF7A1FE2B
:1003F80000214348FFF788FE4FF400614148FFF7AA
:1004080083FE4FF480713F48FFF77EFE4FF4804132
:100418003C48FFF779FE6FF440513A48FFF789FEF0
:100428004EF6F3113848FFF784FE0C213648FFF7E3
:100438006BFE4FF6FF413548FFF77BFE4FF4007126
:100448003248FFF776FE0023FB600023BB600023E1
:100458007B6000233B602E4BBB60BA6813469B0051
:1004680013449A0013442B4AA2FB03231B0B7B6003
:100478007B68294AA2FB03235B091B01FB60FB681D
:100488001B09642202FB03F37A68D31A3B603B68BA
:10049800DB003233204AA2FB03235B0903F00F037E
:1004A800FA681343FB60F9681C48FFF72DFE4FF408
:1004B80000511548FFF728FE0520FFF74FFE1848A2
:1004C80000F055F8034603F08003002B00D1F6E74F
:1004D80000BF4F211348FFF717FE0120FFF73EFE2C
:1004E800EDE700BF0000FFF804100240FFFFF6FE32
:1004F80000100240002002401C1002401810024068
:1005080004100140000801400C440040144400401D
:1005180000127A00B5814E1B1F85EB51084400403C
:10052800004400400444004080B582B000AF04237A
:100538007B6007E000F01EF800F026F800F01FF8D6
:1005480000F022F87B685A1E7A60002BF2D1002353
:1005580018460837BD4680BD02000000690500083E
:10056800FFF7D6FEFFF7E0FFFEE70160704700687F
:100578007047704707494FF400530B6070470549AF
:100588004FF000530B6070474FF40017013FFDD147
:100598007047000010100140002301461A46184613
:1005A80000F09EB808B50021044600F0CBF8044BD3
:1005B8001868C36B03B198472046FFF753FE00BF86
:1005C8001400000838B50A4C0A4D641BA4100AD060
:1005D80004F18043013B05EB8305013C55F80439E0
:1005E8009847002CF9D1BDE8384000F009B900BFA0
:1005F800000000000000000070B50D4E0D4D761B88
:10060800B61006D00024013455F8043B9847A6429A
:10061800F9D1094E094D00F0EDF8761BB61006D059
:100628000024013455F8043B9847A642F9D170BD1F
:1006380000000000000000000000000000000000B2
:10064800F0B4860746D0541E002A3CD0CAB20346EE
:1006580002E014F1FF3436D303F8012B9D07F8D1DB
:10066800032C29D9CDB245EA05250F2C45EA0545C5
:1006780033D9A4F11006360903F1200707EB061752
:1006880003F1100242E9045542E902551032BA4218
:10069800F8D1721C14F00C0F03EB021204F00F06D1
:1006A80013D0331F23F003030433134442F8045BCD
:1006B8009342FBD106F003042CB1C9B21C4403F8E1
:1006C800011B9C42FBD1F0BC704734461346002CFA
:1006D800F3D1F8E714460346C2E71A462646E0E790
:1006E800F0B4174C2568D5F848410CB365681F2D40
:1006F80023DC38B900206B1C0235636044F82510F0
:10070800F0BC7047012604EB850CCCF88820D4F89F
:10071800887106FA05F217430228C4F88871CCF8E4
:100728000831E7D1D4F88C311A43C4F88C21E1E7B9
:1007380005F5A674C5F84841D8E74FF0FF30DFE764
:10074800140000082DE9F04F8A464FF00008234BAB
:1007580083B0D3F800B00190DBF8486196B17468B3
:10076800651E0FD401273C4406EB8404BAF1000F40
:100778000BD0D4F80031534507D0013D6B1CA4F1D0
:100788000404F3D103B0BDE8F08F73682268013B1D
:10079800AB420CBF7560C4F80080002AEDD0D6F8D3
:1007A800881107FA05FC1CEA010FD6F8049008D155
:1007B800904772684A45CFD1DBF84831B342DCD064
:1007C800CAE7D6F88C31D4F880101CEA030F02D19E
:1007D80001989047EDE708469047EAE714000008BB
:1007E800024B13B10248FFF7D7BE70470000000064
:0407F800CD05000823
:0C07FC00F8B500BFF8BC08BC9E46704772
:0C080800F8B500BFF8BC08BC9E46704765
:100814000000000000000000300000200000000084
:10082400000000001C03002084030020EC030020CF
:1008340000000000000000000000000000000000B4
:1008440000000000000000000000000000000000A4
:100854000000000000000000000000000000000094
:100864000000000000000000000000000000000084
:100874000000000000000000000000000000000074
:100884000000000000000000000000000000000064
:100894000000000000000000000000000000000054
:1008A4000000000000000000000000000000000044
:1008B4000000000000000000000000000000000034
:1008C4000000000000000000010000000000000023
:1008D4000E33CDAB34126DE6ECDE05000B000000E8
:1008E4000000000000000000000000000000000004
:1008F40000000000000000000000000000000000F4
:1009040000000000000000000000000000000000E3
:1009140000000000000000000000000000000000D3
:040C4C00810000081B
:040C5000590000083F
:040C5400E9070008A4
:0400000508000018D7
:00000001FF
