:020000040800F2
:08000000005000202109000856
:0400080000000000F4
:08000C003404000001000000B3
:1000180068656C6C6F20776F726C640070000020EC
:1000280020202020202020202020202020202020C8
:1000380030303030303030303030303030303030B8
:1000480005000000190000007D000000000000000D
:10005800000000000000F03F000000000000244005
:1000680000000000000059400000000000408F40E0
:10007800000000000088C34000000000006AF8404B
:100088000000000080842E4100000000D01263416F
:100098000000000084D797410000000065CDCD41E5
:1000A800000000205FA00242000000E876483742C6
:1000B800000000A2941A6D42000040E59C30A24264
:1000C8000000901EC4BCD64200003426F56B0C43D9
:1000D8000080E03779C3414300A0D8855734764380
:1000E80000C84E676DC1AB43003D9160E458E143E1
:1000F800408CB5781DAF154450EFE2D6E41A4B4456
:1001080092D54D06CFF08044F64AE1C7022DB5449A
:10011800B49DD9794378EA44BC89D897B2D29C3C3B
:1001280033A7A8D523F649393DA7F444FD0FA532D6
:100138009D978CCF08BA5B25436FAC642806C80A24
:100148000080E03779C34143176E05B5B5B89346CB
:10015800F5F93FE9034F384D321D30F94877825A97
:100168003CBF737FDD4F15752020202020202020E4
:1001780020202020202020203030303030303030F7
:100188003030303030303030002020202020202007
:10019800202028282828282020202020202020202F
:1001A800202020202020202020881010101010103F
:1001B800101010101010101010040404040404048B
:1001C8000404041010101010101041414141414125
:1001D8000101010101010101010101010101010107
:1001E8000101010110101010101042424242424217
:1001F80002020202020202020202020202020202D7
:10020800020202021010101020000000000000007E
:1002180000000000000000000000000000000000D6
:1002280000000000000000000000000000000000C6
:1002380000000000000000000000000000000000B6
:1002480000000000000000000000000000000000A6
:100258000000000000000000000000000000000096
:100268000000000000000000000000000000000086
:100278000000000000000000000000000000000076
:090288000000000000000000006D
:10029400494E4600696E66004E414E006E616E0026
:1002A40030313233343536373839414243444546A8
:1002B400000000003031323334353637383961626A
:1002C4006364656600000000286E756C6C2900008C
:1002D400300000004E614E00496E66696E697479A3
:1002E4000000000042616C6C6F632073756363658A
:1002F40065646564000000002E2E2F2E2E2F2E2EF6
:100304002F2E2E2F2E2E2F2E2E2F2E2E2F2E2E2F03
:100314006E65776C69622F6C6962632F7374646CA9
:1003240069622F64746F612E630000002E2E2F2EDD
:100334002E2F2E2E2F2E2E2F2E2E2F2E2E2F2E2ED4
:100344002F2E2E2F6E65776C69622F6C6962632F76
:100354007374646C69622F6D707265632E63000040
:100364002C2066756E6374696F6E3A20000000007D
:10037400617373657274696F6E202225732220661F
:1003840061696C65643A2066696C65202225732274
:100394002C206C696E65202564257325730A000082
:0E03A40043000000504F5349580000002E0047
:1003B8000348044B834202D0034B03B118477047EC
:1003C8001C0A00201C0A00200000000005480649FD
:1003D8000B1AD90F01EBA301491002D0034B03B14B
:1003E800184770471C0A00201C0A00200000000063
:1003F80010B5064C237843B9FFF7DAFF044B13B165
:100408000448AFF300800123237010BD00000020D2
:10041800000000000800000808B5044B1BB104499F
:100428000448AFF30080BDE80840CFE700000000B3
:100438000400002008000008A3F5803A704700BFB8
:10044800154B002B08BF114B9D46FFF7F5FF002108
:100458008B460F461148124A121A00F0CDFA0C4B7F
:10046800002B00D098470B4B002B00D0984700205A
:10047800002104000D000B4800F06AFA00F098FA19
:100488002000290000F01EF900F068FA00000800BA
:100498000000000000000000000000000000002034
:1004A8005C0000208509000880B584B000AF786042
:1004B8003960786800F037FAF860FA683B681343E7
:1004C800FB60F968786800F02CFA00BF1037BD4669
:1004D80080BD80B584B000AF78603960786800F07E
:1004E80022FAF860FA683B681340FB60F96878689C
:1004F80000F017FA00BF1037BD4680BD80B584B044
:1005080000AF78600023BB601FE0154BFB604FF421
:100518000051144800F005FA02E0F86800F005FA06
:10052800FB685A1EFA60002BF7D10D4BFB604FF0A9
:1005380000510C4800F0F5F902E0F86800F0F5F910
:10054800FB685A1EFA60002BF7D1BB685A1CBA60C8
:100558007A689A42D9D800BF00BF1037BD4680BD1F
:10056800400D03001010014080B485B000AF7860E2
:100578000A4B1B68002B02D1084B094A1A60074B2B
:100588001B68FB60054B1A687B681344034A1360B9
:10059800FB6818461437BD4680BC70471C00002015
:1005A800A00A002080B483B000AF78604FF0FF331A
:1005B80018460C37BD4680BC704780B483B000AF86
:1005C800786039603B684FF400525A60002318463F
:1005D8000C37BD4680BC704780B483B000AF7860EC
:1005E800012318460C37BD4680BC704780B485B0DF
:1005F80000AFF860B9607A60002318461437BD462A
:1006080080BC704780B483B000AF786000BF0C37FF
:10061800BD4680BC704780B483B000AF7860396055
:1006280000BF0C37BD4680BC704780B400AF4FF0A8
:10063800FF331846BD4680BC704780B586B000AF12
:10064800F860B9607A6000237B61FB68012B08D0F1
:10065800FB68022B05D0FB68032B02D04FF0FF3359
:1006680010E07B68002B0CD0BB685A1CBA60002BCA
:1006780005D0BB681B7819460448FFF715FF00230F
:1006880000E07B6918461837BD4680BD0444004029
:1006980080B487B000AFF860B9607A6000237B61EE
:1006A800FB68002B05D04FF0FF3306E07B68013B69
:1006B8007B607B68002BF9DC7B6918461C37BD46DC
:1006C80080BC704780B586B000AF7F497F48FFF790
:1006D80000FF7F497F48FFF7FCFE6FF480217D48CB
:1006E800FFF7F7FE6FF4FE017A48FFF7F2FE4FF4CA
:1006F80080317848FFF7D8FE764800F014F90346B1
:1007080003F40033002B00D1F6E700BF1021724834
:10071800FFF7CAFE6FF003016F48FFF7DAFE00210A
:100728006D48FFF7C1FE00216848FFF7BDFE0021B4
:100738006648FFF7B9FE00216448FFF7B5FE6FF081
:1007480003016248FFF7C5FE01216048FFF7ACFED0
:100758005E4800F0E8F8034603F00C03002B00D1D4
:10076800F6E700BF4FF400315C48FFF79DFE01211A
:100778005B48FFF799FE04215948FFF795FE1021C1
:100788005748FFF791FE6FF440115648FFF7A1FE56
:100798004FF480115348FFF787FE6FF4400151482A
:1007A800FFF797FE00214F48FFF77EFE4FF40061E8
:1007B8004D48FFF779FE4FF480714B48FFF774FE00
:1007C8004FF480414848FFF76FFE6FF440514648A8
:1007D800FFF77FFE4EF6F3114448FFF77AFE0C212F
:1007E8004248FFF761FE4FF6FF414148FFF771FEAF
:1007F8004FF400713E48FFF76CFE00233B61002375
:10080800FB600023BB6000237B603A4BFB60FA6807
:1008180013469B0013449A001344374AA2FB032350
:100828001B0BBB60BB68354AA2FB03235B091B019A
:100838003B613B691B09642202FB03F3BA68D31AC4
:100848007B607B68DB0032332C4AA2FB03235B0905
:1008580003F00F033A6913433B6139692848FFF7EE
:1008680023FE4FF400512148FFF71EFE03237B614E
:1008780010E0244800F057F8034603F08003002BEB
:1008880000D1F6E700BF4F211F48FFF70DFE0120FA
:10089800FFF734FE7B695A1E7A61002BE9D11B48A9
:1008A80000F00AF900F042F800F04AF800F043F8C6
:1008B80000F046F800F03AF800F042F800F03BF893
:1008C80000F03EF8FEE700BF0000FFF80410024009
:1008D800FFFFF6FE00100240002002401C100240FC
:1008E8001810024004100140000801400C44004068
:1008F8001444004000127A00B5814E1B1F85EB514D
:100908000844004000440040044400401800000827
:10091800020000002109000800F04AF8FFF7D2FEA3
:10092800FEE70160704700687047704707494FF459
:1009380000530B60704705494FF000530B60704738
:100948004FF40017013FFDD170470000101001401F
:10095800002301461A46184601F000BC08B50021DC
:10096800044601F02DFC044B1868C36B03B198478B
:100978002046FFF747FE00BF2400000838B50A4CA0
:100988000A4D641BA4100AD004F18043013B05EB17
:100998008305013C55F804399847002CF9D1BDE886
:1009A800384006F011BF00BF000000000000000042
:1009B80070B50D4E0D4D761BB61006D000240134CF
:1009C80055F8043B9847A642F9D1094E094D06F05F
:1009D800F5FE761BB61006D00024013455F8043B0A
:1009E8009847A642F9D170BD000000000000000041
:1009F8000000000000000000F0B4860746D0541E36
:100A0800002A3CD0CAB2034602E014F1FF3436D3C0
:100A180003F8012B9D07F8D1032C29D9CDB245EA5B
:100A280005250F2C45EA054533D9A4F110063609EA
:100A380003F1200707EB061703F1100242E90455FA
:100A480042E902551032BA42F8D1721C14F00C0F68
:100A580003EB021204F00F0613D0331F23F0030335
:100A68000433134442F8045B9342FBD106F00304B9
:100A78002CB1C9B21C4403F8011B9C42FBD1F0BC49
:100A8800704734461346002CF3D1F8E71446034662
:100A9800C2E71A462646E0E70EB410B583B005ACA7
:100AA80054F8042B81682346019400F019F803B028
:100AB800BDE8104003B070470FB410B5074B82B0C3
:100AC80004AC54F8042B186823468168019400F09C
:100AD80007F802B0BDE8104004B070476800002075
:100AE8002DE9F04FBFB01C460891914605460C9081
:100AF80002F022FF03680D941846159304F018F8C5
:100B080013901DB1AB6B002B00F056830899B1F917
:100B18000C20084693B29E0407D4496E42F4005351
:100B280021F40051838141669BB21D0740F1CF80BB
:100B3800089A1269002A00F0CA8003F01A030A2BE7
:100B480000F0D380002300210022CDE92233CDE933
:100B580010120DF1B80A1293149316930993CDF855
:100B680084A099F80030002B00F0DB80252B00F0E2
:100B7800B4864D4603E0252B00F0C58025466B78EA
:100B88006C1C002BF7D1B4EB090600F0CA80DDE934
:100B9800223201333244072BCAE90096CDE92232CA
:100BA80000F3B6800AF1080A099A6B783244099270
:100BB800002B00F0B68000234FF0FF361A46194686
:100BC8009B4667788DF867300A9304F1010909F1AB
:100BD8000109A7F12003582B00F2F282DFE813F095
:100BE800CA02F002F002D202F002F002F002F002B1
:100BF800F002F0022002AC02F002A702B102F002F9
:100C0800C000B100B100B100B100B100B100B10045
:100C1800B100B100F002F002F002F002F002F002BE
:100C2800F002F002F002F0028D024E02F0024E02D3
:100C3800F002F002F002F0024502F002F002680051
:100C4800F002F002F002F002F0025900F002F002A5
:100C58002D02F002F002F002F002F002F002F002BF
:100C6800F002F002F002A7016D014E024E024E02A0
:100C780068016D01F002F0025B01F00245016A00B3
:100C880015011001F002E600F0025B00F002F0022C
:100C9800C5004BF0100B1BF0200F00F082820D9C5A
:100CA800073424F00703F3E802450D930123BCE061
:100CB8004BF0100B1BF0200300F069820D9C0734E9
:100CC80024F00703F3E802450D930023ADE00899EB
:100CD8000C9801F0DDF9002841F02381089B9B89DD
:100CE80003F01A030A2B7FF42DAF089BB3F90E30DB
:100CF800002BFFF627AF23464A4608990C9801F0C7
:100D080091F9099019E0B4EB09063FF454AF3EE7B6
:100D180021AA08990C9803F075FF48B90DF1B80A93
:100D280042E7239B23B10C9821AA089903F06AFF94
:100D3800089B9B895A0601F1F48009983FB0BDE8E9
:100D4800F08F0020A7F1300319F8017B00EB800039
:100D580003EB4000A7F13003092BF5D90A9038E7D7
:100D68004BF0800B99F8007031E7002A41F0BD8004
:100D7800C04B1BF0200F149300F068810D9C0734C2
:100D880024F00703F3E802450D931BF0010F00F070
:100D9800288254EA050300F0248230238DF8697014
:100DA8008DF868304BF0020B02233EE000250D9CC5
:100DB8008DF8675054F8043B0E93002B00F07D86A5
:100DC800711C00F04F87324629460E9803F0D8F878
:100DD800002801F06C802E460E9BC31A0B939DF8D9
:100DE800678023EAE3730D94CDF818B007930F9644
:100DF800B8F1000F00F0AD80079B01330793A8E01E
:100E08004BF0200B99F80070E1E647F630030D9C93
:100E1800ADF8683054F8042B964B0D94149314468F
:100E28000025022378274BF0020B002290468DF80C
:100E38006720721C00F0D9812BF08002069254EAD8
:100E4800050240F0D081002E40F01584002B40F0C0
:100E5800DB841BF001030B9300F0488530238DF8E9
:100E6800B7300DF1B7030E9359E0002A41F05180D5
:100E78000D9A1BF0200F52F8043B0D9240F03A8572
:100E88001BF0100F40F052861BF0400F00F04E860A
:100E9800099A1A8065E699F800706C2F03BF99F8D3
:100EA80001704BF0200B09F101094BF0100B8EE695
:100EB8004BF0400B99F8007089E6002A41F0198040
:100EC8001BF0200F00F022810D9C073424F007034B
:100ED8001946F1E8022314461D460D91002A73F1C4
:100EE8000003C0F2ED84731C9DF8678008D02BF0D6
:100EF8008003069354EA050300F08384DDF818B0F4
:100F0800002D08BF0A2C80F05384012330340B9342
:100F18000DF1B7038DF8B740CDF818B00E930B9BC1
:100F2800B342B8BF3346079300230F9360E701210C
:100F380000220D9C079154F8043B8DF867208DF82A
:100F4800903024AB0D940B910E930026CDF818B079
:100F58000F96069B13F0020302D0079A02320792FB
:100F6800069A239C12F0840B05D10A9A0799551A00
:100F7800002D00F3B5829DF8672072B10120229AF6
:100F8800044402440DF16701072ACDE92224CAE985
:100F9800001000F31D830AF1080A6BB10221229B9D
:100FA8000C4401331AAA072BCDE92234CAE90021DF
:100FB80000F31C830AF1080ABBF1800F00F09B8143
:100FC8000B9BF61A002E00F3E081069BDB0500F16F
:100FD8003981229B0B9A01330E991444072B2394D1
:100FE800CAE90012229300F3E7820AF1080A069B75
:100FF800590705D50A9B079A9D1A002D00F302830D
:10100800DDE9093207998A42ACBF9B185B1809933E
:10101800002C40F0FF8100230DF1B80A2293A0E5CF
:101028000D9B99F8007053F8040B00280A900D9353
:10103800BFF6CDAD43420A937BE0002A40F06187BA
:101048000D4B1BF0200F14937FF498AE0D9B1BF0F3
:10105800100F53F8044B0D9340F03C841BF0400FE5
:1010680000F03884A4B200258FE64BF0080B99F8FD
:101078000070ACE5B8020008A4020008002A40F09D
:1010880044870D9C073424F00703F3E80212144642
:101098000D930B46CDE9103422F000440D46084666
:1010A8004FF0FF322146C04B06F0CEF9002840F041
:1010B8003084284621464FF0FF32BB4B06F0A6F994
:1010C800002840F02684DDE910010022002306F004
:1010D80093F9002840F03F869DF867800321002699
:1010E800B24AB34B0791472FC8BF1A462BF080006E
:1010F80006900B910F960E927AE6002A40F0FD8634
:101108004BF0100B1BF0200F7FF4DEAE0D9B1BF095
:10111800100F53F8044B0D9340F0CA831BF0400F97
:1011280000F0C68324B2E51722462B46D6E699F886
:1011380000704BF0040B4AE599F8007001222B214E
:1011480045E5484610F8017B2A2F00F04B87A7F1A8
:101158003003092B81464FF000063FF63AAD19F8E7
:10116800017B06EB860603EB4606A7F13003092B45
:10117800F5D92EE599F8007000297FF428AD0122F1
:10118800202124E54BF0010B99F800701FE50D9A1A
:1011980052F8044B0D921BF0100200F05D840025FC
:1011A80043E60D9B1BF0100F53F8044B0D9300F012
:1011B800A8830025012338E60C9802F005FAA5E477
:1011C800002A40F0F285002F3FF4ABAD0023012246
:1011D8008DF8673024AB07928DF890700B920E93C0
:1011E800B3E6022321E6DDF818B0012B3FF488AE00
:1011F800022B00F048822EA900E01146E20842EADC
:101208004572E80804F0070305461446303354EAEB
:10121800050001F8013C01F1FF32EED11BF0010F8E
:101228000E9200F0E782302B00F0788430230E9A7B
:10123800023902F8013C2EAB5B1ACDF818B00B93BB
:101248000E916CE6652F40F3EE80DDE91001002277
:10125800002306F0C7F8002800F02E820121229B07
:10126800544A0B440C44072B23942293CAE90021C7
:1012780000F3A6840AF1080A1B9B129A239C934246
:1012880080F22E83229B139A013315991444072B5D
:10129800CAE90012CDE9223400F302840AF1080AEF
:1012A800129B5D1E002D7FF7A2AE102D229A40F3EF
:1012B8007B841026DFF800B10C9FDDF8208005E064
:1012C8000AF1080A103D102D40F3708401321034E1
:1012D800072ACDE92224CAE900B6F1DD21AA414650
:1012E800384603F08FFC00287FF422ADDDE9222484
:1012F8000DF1B80AE6E70A9B079A9D1A002D7FF7B9
:101308005FAE102D229A40F30886DFF8ACB0534642
:1013180058462146CA46BB46B1464FF010080C9CB9
:10132800089E074604E0103D102D03F1080315DD63
:1013380001321031072ACDE92221C3E90078F2DD14
:1013480021AA3146204603F05DFC00287FF4F0AC6A
:10135800DDE92221103D102D2EABE9DC4E46D146A9
:101368009A463B460C465F469B4601322C44072A68
:10137800CDE92224CAE900B500F32E840B9B0AF1BB
:10138800080AF61A002E7FF720AE102E229A40F394
:10139800D184DFF824B0234659461025BB46DDF832
:1013A8003080089C0F460EE0FFFFEF7F9402000894
:1013B80098020008D402000838000008103E102ED9
:1013C8000AF1080A16DD01321033072ACDE9222373
:1013D800CAE90075F2DD21AA2146404603F012FC55
:1013E80000287FF4A5ACDDE92223103E102E0DF174
:1013F800B80AE8DC1C463B465F469B46013234444B
:10140800072ACDE92224CAE900B600F344820AF18A
:10141800080ADAE521AA08990C9803F0F3FB0028DA
:101428003FF4F9AD84E4129A229B012A04F10104E5
:1014380003F101050AF1080640F3F08101230E9A31
:10144800072DCAF80020CDE92254CAF8043000F369
:101458008183139B0135159A1C44072DCDE922542D
:10146800C6E9002300F36A8308366B1C1F46DDE9D2
:101478001001B846129F0B930022002306F1080AB8
:10148800013F05F0AFFF002840F0DC810E9B3C4493
:101498000133B8F1070F336023947760CDF8888063
:1014A80000F3EE8206F1100356469A4605F102084B
:1014B800169A1DAB1444B8F1070F23947260CDF847
:1014C800888033607FF793AD21AA08990C9803F0C0
:1014D80099FB00287FF42CAC0DF1B80A239C86E513
:1014E800102D229A2CDD51462046CA464FF010088E
:1014F800B14617932E460C9C089D04E0103E102E12
:1015080001F1080116DD0132C24B1030072ACDE97E
:101518002220C1E90038F1DD21AA2946204603F03E
:1015280071FB00287FF404ACDDE92220103E102E68
:101538002EA9E8DC354604464E46D1468A46179B16
:101548000132B4492C44072ACDE92224CAE90015FE
:1015580000F31B830AF1080A0DE521AA08990C98E3
:1015680003F050FB00287FF4E3AB1B9B239C0DF199
:10157800B80A002B40F03D83069B129A03F0010342
:1015880013433FF434AD229A139B013215991C443E
:10159800072A2394CAE90013229200F31A840AF155
:1015A800080A129B01320E991C44072ACDE922240D
:1015B800CAE900137FF719AD21AA08990C9803F01E
:1015C80021FB00287FF4B4AB239C0DF1B80A0EE58B
:1015D80021AA08990C98179303F014FB00287FF4AC
:1015E800A7AB0DF1B80A239C179BD6E421AA08994A
:1015F8000C9803F007FB00287FF49AAB0DF1B80AAA
:10160800239CD9E4102D229B21DD10260C9FDDF8A8
:10161800208004E0103D102D0AF1080A17DD01337F
:101628007C4A1034072BCDE92234CAE90026F1DDC3
:1016380021AA4146384603F0E5FA00287FF478AB42
:10164800DDE92234103D102D0DF1B80AE7DC013335
:10165800704A2C44072BCDE92234CAE900257FF7CC
:10166800CFAC21AA08990C9803F0CCFA00287FF493
:101678005FAB239CC4E4012B00F0C583022BDDF88B
:1016880018B07FF4B8ADDDF850C02EAA230943EA9C
:101698000573280904F00F0105461C461CF80130A3
:1016A80002F8013D54EA0503F0D12EAB9B1A0E92C5
:1016B800CDF818B00B9332E41B9B002B40F35682F5
:1016C800129B0F9A9342A8BF1346002B1D460CDDB0
:1016D800229B0E9A01332C44072B2394CAE9002538
:1016E800229300F3C7830AF1080A0F9B002DA8BFB5
:1016F8005B1B002B1D4600F3EB811B9A129B9A4241
:1017080080F2B281229B1399013315980C44072B60
:101718002394CAE90001229300F33A830AF1080AE4
:101728000F99129B9142A3EB020380F203821D469C
:10173800002D10DDDDE90E10229A014401322C44FF
:10174800072ACAF800102394CAF80450229200F31A
:101758009D830AF1080A002DB4BF1D465D1B002DAC
:101768007FF745AC102D229A40F31E821026DFF831
:10177800A8B00C9FDDF8208005E00AF1080A103DAA
:10178800102D40F3138201321034072ACDE92224A8
:10179800CAE900B6F1DD21AA4146384603F032FA1B
:1017A80000287FF4C5AADDE922240DF1B80AE6E78E
:1017B8002EABCDF81890C146B0461E4601E004464F
:1017C8000D460A2200232046294605F07BFE3032CA
:1017D80006F8012D00230A222046294605F072FE4C
:1017E800002D08BF0A2CEAD232460E964646C84655
:1017F800DDF818902EAB9B1ACDF818B00B93FFF7B5
:101808008EBB002E40F0FF8200262EAB0E930B9667
:10181800FFF785BB2800000838000008069AD007A3
:101828003FF50CAE01220E99072DCAF80010CDE93C
:101838002254CAF8042000F3948203F102080AF142
:10184800100A35E6002F7FF733AE102F40F3C3831D
:1018580023464FF01008DFF850B4DDF830A0089C9C
:101868000B9D05E00836103F102F40F3028201352A
:101878001033072DCDE92253C6E900B8F2DD21AABD
:101888002146504603F0BEF900287FF451AADDE94D
:1018980022532EAEE7E721AA08990C9803F0B2F973
:1018A80000287FF445AA0DF1B80A239CFFF78DBBE9
:1018B800E51722462B46002A73F10003BFF613AB47
:1018C8004FF02D08644265EB45058DF867800123CC
:1018D800FFF7AFBA0025FFF758BA4C46FFF76BB9C8
:1018E800069BDE073FF5CEACFFF781BB2EAB0E9310
:1018F800FFF715BB099A1046D117C3E90001FFF796
:1019080030B91BF0400F18BFA4B200250123FFF720
:101918008CBADDE9100102460B4605F095FD00285A
:1019280040F02E8327F02003741C079300F0BD823B
:10193800472B00F04A82DDE910124BF48073151E24
:101948000693C0F21F820023DDF840801793662FAC
:1019580000F0AC81462F00F0A981079B4246452B39
:101968004FF002002B4600F052821FA9CDE9000675
:1019780004911CA81BA9CDE902100C9800F00EFDDB
:10198800672F0E90344640F04F821BF0010F40F055
:101998004E821B9A1F9B0F920E9A9B1A1293079BBB
:1019A800472B06D10F9BD81C02DB9E4280F2538244
:1019B800023F0F9B8DF874705A1E002AA8BF2B2374
:1019C8001B92BCBFC3F101022D23092A8DF8753083
:1019D80040F3AC820DF183042046B04D01E0084687
:1019E8001A4685FB0231D317C3EBA10303EB83012E
:1019F800A2EB41013031632A00F8011C00F1FF31EC
:101A0800EDDC3033821EDBB2944201F8013C40F237
:101A1800E6820DF1760201E011F8013B8C4202F8F2
:101A2800013BF9D10DF185030DF176021B1A134420
:101A38001DAA9B1A1693129A169B012A13440B93FC
:101A480040F395820B9B139A13440B9323EAE37399
:101A5800079300230F9363E11BF040031CBF134659
:101A6800A4B20025FFF7E1B9069BDD073FF54AAEB2
:101A78000F99129B8A42A3EB02035BDD1D466AE6BF
:101A880021AA08990C9803F0BDF800287FF450A902
:101A9800DDE922340DF1C00A03F101082EAE07E595
:101AA80021AA08990C9803F0ADF800287FF440A902
:101AB8000DF1B80A239CFFF7F3BB062E334628BF67
:101AC80006230B930793764B0D940E93FFF73DBABD
:101AD800102B229A40F332811026DFF8CCB10C9FEC
:101AE800DDF8208005E00AF1080A103D102D40F3CA
:101AF800278101321034072ACDE92224CAE900B629
:101B0800F1DD21AA4146384603F07CF800287FF42D
:101B18000FA9DDE922240DF1B80AE6E70E9A2EABEB
:101B28009B1ACDF818B00B93FFF7F9B9099A1A6008
:101B3800FFF717B8129A0F99551AF9E521AA0899CB
:101B48000C9803F05FF800287FF4F2A8DDE922542E
:101B58002EAE8AE421AA08990C9803F053F80028BD
:101B68007FF4E6A8DDE922542EAE72E40120229A21
:101B78004C4902440444072ACDE92224CAE900104A
:101B88003FF7EBAC0AF1080AF3E421AA08990C988C
:101B9800179303F037F800287FF4CAA80DF1B80AA4
:101BA800239C179BFFF7E7B9DFF8FCB001322C4400
:101BB800072ACDE92224CAE900B57FF716AAFBE473
:101BC80021AA08990C9803F01DF800287FF4B0A802
:101BD8000DF1B80AFFF750BB21AA08990C9803F039
:101BE80011F800287FF4A4A80DF1B80A239CFFF788
:101BF800E7B9229A1399013215980C44072A2394BD
:101C0800CAE90001229200F3E4800AF1080A002BD5
:101C1800BFF6C7AC5D42103380F2EF81DFF888B0C1
:101C280010265F46DDF82080DDF830B005E00AF1C7
:101C3800080A103D102D40F3828101321034072A22
:101C4800CDE92224CAE90076F1DD21AA41465846A9
:101C580002F0D8FF00287FF46BA8DDE922240DF1FB
:101C6800B80AE6E70E9802F063FF2E460346FFF730
:101C7800B5B81C4605F1010806F108023C44B8F164
:101C8800070F2394C6E900B7CDF888803FF7F8AE70
:101C980008F1010802F1080A164609E46766666653
:101CA800CC020008D40200083800000803201FA94D
:101CB800CDE9000604911CA81BA92B46CDE902100A
:101CC80042460C9800F06AFB0E900E9B84191B7814
:101CD800302B6ED01B9B1C44404629460022002313
:101CE80005F080FB002800F0A58023460E9A9B1A79
:101CF80012931B9B0F93079B472B3FF453AE662F02
:101D08007FF457AE0F9A0BF00103002A43EA06034B
:101D180040F35481002B40F04C810F9B07930B93A9
:101D2800179B002B00F092802D2300268DF867303A
:101D3800FFF762B8DFF8D0B2FFF760BBDFF8C8B2D0
:101D480001322C44072ACDE92224CAE900B54EDC29
:101D58000AF1080AD1E42D2398468DF86730FFF779
:101D6800BDB921AA08990C9802F04CFF00287EF40E
:101D7800DFAFDDE922342EAE03F101080DF1C00A10
:101D8800FFF796BB2D23884602F100451793DEE541
:101D980021AA08990C9802F035FF00287EF4C8AFF4
:101DA8000DF1B80A1B9A239CBAE48DF86710FFF767
:101DB8000ABA404629460022002305F013FB0028F2
:101DC80088D1C6F101031B9385E7002E08BF0126C1
:101DD800B1E521AA08990C9802F014FF00287EF4B6
:101DE800A7AFDDE922240DF1B80A1B9B0FE721AA52
:101DF80008990C9802F006FF00287EF499AF0DF1BF
:101E0800B80A239C79E4DDF818B0FFF77EB81FA95B
:101E1800009004911CA81BA9741CCDE90210019420
:101E28000C9800F0BBFA0E90472F3FF4AEAD0E9B16
:101E38001C4451E71F9BA342BFF458AF30215A1CE2
:101E48001F9219701F9B9C42F9D84FE7179E9DF867
:101E58006780FEF7CDBF129B19460F9B994231DC74
:101E68001BF0010F40F09C8023EAE37207920B936A
:101E7800672755E721AA08990C9802F0C3FE0028A5
:101E88007EF456AF0DF1B80A239C2EE421AA0899D6
:101E98000C9802F0B7FE00287EF44AAF1B9B129AFA
:101EA800239CD31A0DF1B80A55E4062643E5079694
:101EB8000B960D940646CDF818B00F909DF86780E4
:101EC800FEF796BFDDE9123213440F9A0B93002AEE
:101ED80006DC0F9B0B9AC3F101031A4413460B92BD
:101EE80023EAE373079367271AE78DF86710FEF76D
:101EF8003FBF8DF86710FEF7E3BF8DF86710FFF757
:101F0800FFB88DF86710FFF79BB88DF86710FFF7DB
:101F1800B8B88DF86710FEF7ABBFDFF8ECB0FFF785
:101F280024BA4FF0FF330993FEF707BF30231A4452
:101F38008DF8763004238DF8772016937BE5BB4621
:101F480001322C44072ACDE92224CAE900B57FF7DB
:101F580026AB21AA08990C9802F054FE00287EF4BA
:101F6800E7AEDDE922240DF1B80AFFF71ABB1BF032
:101F780001020F927FF466AD23EAE3730793CFE67D
:101F8800119B0321002BB7BF2D239DF8678098462E
:101F98008DF8673007910026194A1A4BFFF7A3B846
:101FA8000F9B139A672713440B9323EAE373079352
:101FB800B6E6139BD31833440B93DDE71BB9012313
:101FC80007930B93ACE6139B013333440B9323EA3B
:101FD800E3730793A4E65246DFF82CB04EE60223DB
:101FE800169328E50D9B99F8017053F8046B814608
:101FF80046EAE6760D93FEF7EABDDFF80CB09FE7F8
:102008009C020008A00200083800000810B4044C24
:1020180013460A460146206810BCFEF761BD00BFA2
:102028006800002070B50C4600264FF48065898949
:10203800ADF58D6D21F00201ADF80C100696616EBC
:10204800E6891991ADF80E60E169666A079109960B
:1020580069461AAE00960496029505950646FEF75F
:102068003FFD051E07DB3046694601F0A7F9002849
:1020780018BF4FF0FF35BDF80C305B0603D5A389B8
:1020880043F04003A38128460DF58D6D70BD00BF58
:1020980038B5314B054618680C4608B1836B0BB34D
:1020A800B4F90C2093B2180723D5206960B313F054
:1020B800010207D000226369A2605B42A36138B1C4
:1020C800002038BD990758BF6269A2600028F7D17F
:1020D800B4F90C301A06F4D543F04003A3814FF04D
:1020E800FF3038BD01F070FAB4F90C2093B218072C
:1020F800DBD4D90628D5580712D4206942F0080342
:10210800A3819BB20028D2D103F42072B2F5007FDC
:10211800CDD02846214601F045FCA3892069C6E7B1
:10212800216B51B104F14003994204D0284601F0D3
:10213800BBFAB4F90C20002323630023206922F0A2
:102148002402C4E90003D9E7092342F040022B60C6
:102158004FF0FF30A28138BD68000020F0B4174C62
:102168002568D5F848410CB365681F2D23DC38B9BC
:1021780000206B1C0235636044F82510F0BC7047E2
:10218800012604EB850CCCF88820D4F8887106FA6F
:1021980005F217430228C4F88871CCF80831E7D152
:1021A800D4F88C311A43C4F88C21E1E705F5A674FC
:1021B800C5F84841D8E74FF0FF30DFE724000008B2
:1021C8002DE9F04F8A464FF00008234B83B0D3F82F
:1021D80000B00190DBF8486196B17468651E0FD4B1
:1021E80001273C4406EB8404BAF1000F0BD0D4F865
:1021F8000031534507D0013D6B1CA4F10404F3D111
:1022080003B0BDE8F08F73682268013BAB420CBF96
:102218007560C4F80080002AEDD0D6F8881107FA56
:1022280005FC1CEA010FD6F8049008D190477268A3
:102238004A45CFD1DBF84831B342DCD0CAE7D6F8FB
:102248008C31D4F880101CEA030F02D10198904712
:10225800EDE708469047EAE724000008024B13B16F
:102268000248FEF775BB70470000000085090008AA
:102278002DE9F04F03690E6983B0B342C0F289803B
:10228800013E01F1140500F1140955F8263059F8FA
:10229800262001338246B000009005EB00089A42E0
:1022A8004844B2FBF3F701903CD30022AE461446F3
:1022B800CC465EF8043BDCF800001FFA83FB07FB02
:1022C8000B221B0C4FEA124B07FB03BB93B2E31A1A
:1022D80082B21FFA8BF41344C4EB104404EB23447A
:1022E8009BB243EA0443F0454CF8043B4FEA2444CC
:1022F8004FEA1B42DDD2009B59F8033093B9019A8B
:10230800131F99450CD252F8043C4BB9A2F10803AB
:1023180002E01A68043B1AB9994506F1FF36F8D36A
:10232800CAF81060504602F083F900282DDB4846B1
:102338000023013755F8041B04688AB29A1A0B0C5B
:10234800A1B20A44C3EB144303EB224392B242EA1C
:102358000342A84540F8042B4FEA2343EAD259F830
:10236800262009EB860382B91A1F91450BD253F830
:10237800042C42B9083B02E01A68043B1AB9994593
:1023880006F1FF36F8D3CAF81060384603B0BDE846
:10239800F08F002003B0BDE8F08F00BF2DE9F04FAB
:1023A8001F461646036C97B00446CDE902674BB149
:1023B8000122456C1946AA40C3E9015201F0C6FE44
:1023C800002323643E1EB4BF01230023239AB8BF11
:1023D80026F000461360764BB8BF0396B34300F06F
:1023E800AF80DDE902231046194600220023CDE91B
:1023F800080104F0F7FF074678B10123229A136019
:10240800249B002B00F041836A4B249A1360013B04
:102418000493049817B0BDE8F08F14AA15ABCDE962
:102428000032DDE90889204642464B4602F02EFA82
:10243800350D834640F09A80DDE91485454405F260
:102448003243202B40F3F183C3F140039E40029BAB
:1024580005F2124023FA00F0304304F0E1FC024692
:102468000120013D0D90A1F1F87310461946002294
:10247800514B04F097FB48A3D3E9002304F04AFD2D
:1024880047A3D3E9002304F08FFB064628460F46EE
:1024980004F0D6FC44A3D3E9002304F03BFD024634
:1024A8000B463046394604F07FFB06460F4604F0DB
:1024B800E1FF0022824600233046394604F09CFFA3
:1024C800002840F0D582A8EB05056B1EBAF1160F5F
:1024D800059300F2C282DDE90801384B03EBCA0319
:1024E800D3E9002304F088FF00286DD000230C9363
:1024F800059B0AF1FF3A002BC0F2B5824FF00009A4
:10250800BAF1000F66DACAF100030B93209BA9EB1E
:102518000A09092BCDF818A04FF0000A63D8052B3B
:1025280040F381830025043B2093209B023B032B2F
:1025380000F27A86DFE813F0A804A5047E04980464
:1025480042F20F73229AC6F313061360029B3343B9
:1025580019D1249B002B00F07686194B049308337D
:10256800249A0498136017B0BDE8F08FC9F31301DB
:1025780041F07F534246A5F2FF350D9743F44013CF
:10258800DDF8508071E7249B002B40F041840D4B0F
:1025980004933EE7AFF3008061436F63A787D23FA0
:1025A800B3C8608B288AC63FFB799F501344D33F3A
:1025B8000000F07FD50200080000F83F580000082E
:1025C800DC020008D8020008059B0C90002BC0F222
:1025D8004A828146059B5344CDE9053A00230B9373
:1025E800209B092B9BD900230125209321934FF091
:1025F800FF330A9507930021079B616410932046D7
:1026080001F07EFD0490002800F01686049B2364E8
:10261800079B0E2B00F23481002D00F031810699C2
:10262800002940F37384AA4B01F00F0203EBC203A5
:102638000D11D3E90023CDE90E23EA0640F13C84CD
:10264800DDE90801A34B0327D3E9082304F08CFD37
:10265800CDE9020105F00F057DB1DDE90E019D4EC2
:10266800EB0704D5D6E9002304F054FC01376D10BC
:1026780006F10806F4D1CDE90E01DDE90201DDE934
:102688000E2304F071FDCDE902010C9B43B1DDE995
:1026980002010022904B04F0AFFE002840F03A857A
:1026A800384604F0CDFBDDE9022304F033FC8B4B04
:1026B800002204F079FAA1F15073CDE90E010F93CD
:1026C800079B002B00F0BC80069B1293079B11937D
:1026D800DDE902673946304604F0CCFE054604F0D1
:1026E800AFFB02460B463046394604F05BFA119AB6
:1026F800774B064603EBC2030F46DDE90E120A9834
:10270800CDE9021253E90223049930355FFA85F8BE
:102718004D1C002800F090840020714904F024FD2D
:10272800DDE9022304F03EFA049B324683F8008078
:102738003B46CDE9020104F07DFE002840F0CB8441
:1027480032463B460020644904F02CFA02460B4608
:10275800DDE9020104F06EFE002840F05185119B6E
:10276800012B00F08980049ACDF844901344CDF8E9
:102778004CA0CDF838B09946DDE902ABA0460FE091
:1027880032463B460020544904F00CFA52465B4658
:1027980004F032FE002840F002854D4500F008851F
:1027A8005046594600224F4B04F0B4FB00224D4BD3
:1027B80082468B463046394604F0ACFB0F46064647
:1027C80004F058FE044604F03BFB02460B46304634
:1027D800394604F0E7F93034E4B205F8014B5246C3
:1027E8005B4606460F4604F007FE0028C8D044465C
:1027F800129BDDF838B0013306935946204601F0A4
:10280800A5FC00232B70229B1A46069B1360249B71
:10281800002B3FF4FEAD04981D6017B0BDE8F08FA3
:10282800384604F00DFBDDE9022304F073FB2B4B63
:10283800002204F0B9F9A1F15073CDE90E010F930C
:102848000022DDE90201284B04F0ACF9DDE90E783D
:102858003A46434605460E4604F0ECFD0746002876
:1028680040F0D483DDE90E01024601F10043284619
:10287800314604F0C1FD30BBDDE90823CDE9022370
:10288800159B002BC0F2C780069A0E2A00F3C3805E
:102898000F4B03EBC203D3E9009A219B002B25DAE7
:1028A800079F002F22DC40F06A8400220E4B484626
:1028B800514604F02FFBDDE9022304F0B1FD0028A6
:1028C80000F0A583079F3E46219B049DDB4373E2EE
:1028D80058000008480100080000F03F00001C40B4
:1028E8000000E03F0000244000001440DDE90267DA
:1028F8004A4653463046394604F036FC04F0BAFDE1
:10290800804604F09DFA4A46534604F003FB02460B
:10291800304646460B46394604F044F9049D3036A5
:10292800069F05F8016B079E0137012E02460B46EC
:10293800069744D00022CA4B04F0ECFA0022002388
:1029480006460F4604F04EFD00287FF456AFCDF83A
:1029580008B04FF00108DDF81CB005940CE0002227
:10296800BF4B04F0D7FA0022002306460F4604F0B6
:1029780039FD002840F041834A46534630463946DF
:1029880004F0F2FB04F076FD044604F059FA4A46D6
:10299800534604F0BFFA02460B463046394604F067
:1029A80001F908F1010804F13006C34502460B4657
:1029B80005F8016BD3D1A046DDF808B0059C104698
:1029C800194604F0F1F84A46534606460F4604F005
:1029D80031FD60B94A4653463046394604F002FD97
:1029E80000283FF40AAF5FEAC8717FF506AF15F813
:1029F800018C6B1E049A04E09A4200F0B18313F82C
:102A0800018DB8F1390F03F10105F5D008F1010284
:102A1800D2B21A70F1E60A9A002A3CD0209A012A0A
:102A280040F36782079B5F1E0B9BBB4280F242828A
:102A38000B9B0B97FB1A00279A44079B002BC0F2AD
:102A4800E182059A4D4611461944059199440121A0
:102A5800204601F07FFC064620E001230C93059BED
:102A6800002BBFF64BAD0023C5F10109059347E5DF
:102A7800504604F0E5F932463B4604F0B3FC002822
:102A88007FF421AD0AF1FF3A1DE5764B04930498D3
:102A980017B0BDE8F08F4D460B9F0A9E002D0BDD49
:102AA800059A002A08DDAA421346A8BF2B46A9EBBF
:102AB8000309ED1AD31A05930B9BD3B10A9B002B7C
:102AC80000F09F81002F10DD31463A46204601F084
:102AD800FDFC5A4601460646204601F051FC0346D5
:102AE800594620469B4601F031FB0B9BDA1B40F010
:102AF80089810121204601F02DFCBAF1000F07461B
:102B080000F39980209B012B40F3878100230893D1
:102B18000120BAF1000F40F09A80059A104410F095
:102B28001F0079D0C0F12003042B40F36E83C0F15D
:102B38001C000244814405440592B9F1000F05DDEB
:102B480059464A46204601F00DFD8346059B002B59
:102B580005DD39461A46204601F004FD07460C9B60
:102B6800002B40F03381079B002B40F30A810A9B1E
:102B7800002B40F08680069B01330693049D4FF09E
:102B88000108DDF81C9008E0594600230A22204677
:102B980001F0E6FA834608F1010839465846FFF77E
:102BA80067FBC14500F1300005F8010BECDC03467A
:102BB8004FF0000A594601222046029301F0D2FC48
:102BC8003946834601F034FD002815F8012C40F3FE
:102BD8007B816B1E049904E0994200F0838113F80D
:102BE800012D392A03F10105F6D001321A70394650
:102BF800204601F0ABFA002E3FF4FFADBAF1000F0A
:102C080005D0B24503D05146204601F09FFA31461F
:102C1800204601F09BFAF0E51C20059B8144034403
:102C28000544059389E701257FE4C3F12006029B4B
:102C380003FA06F011E401465246204601F046FC2C
:102C4800209B0746012B40F38B81002308933B69A7
:102C580007EB8303186901F02DFBC0F120005CE746
:102C680000002440D4020008314600230A222046EE
:102C780001F076FA109B0646002B40F3B982CDE9A5
:102C88000683002D05DD31462A46204601F06AFC00
:102C98000646089B002B40F09981B1460499029B97
:102CA800884603F001024B1E20990B920A430A92B0
:102CB800079A1A44089239465846FFF7D9FA314616
:102CC8000290584601F0B4FC4A46824639462046EE
:102CD80001F0CAFC029BC26805463033002A42D183
:102CE80001465846079301F0A3FC29460590204663
:102CF80001F02CFA059A079B1AB90A99002900F0E5
:102D08006082BAF1000F08F10105C0F241812099F3
:102D180041EA0A0A0B9951EA0A0100F03981002AAE
:102D280000F37781089A88F80030424500F07E81E8
:102D3800594600230A22204601F012FA4E458346DE
:102D480031464FF000034FF00A02204613D001F03D
:102D580007FA4946064600230A22204601F000FAEF
:102D6800A8468146A7E701462046059301F0EEF9FB
:102D78000122059BC5E701F0F3F9A84606468146FE
:102D880099E7209B022B40F38280079B002B7FF45E
:102D98009BAD39460522204601F0E2F90146074677
:102DA800584601F045FC00287FF78EAD3122049D7E
:102DB800069B05F8012B013301333946204606935B
:102DC80001F0C4F9002E7FF422AF16E539465846C3
:102DD80001F02EFC0028BFF6C6AE594600230A2291
:102DE800204601F0BDF9069B834603F1FF380A9B94
:102DF800002B7FF439AF109B002B40F3EF81079332
:102E0800BCE60B9A5946204601F060FB834670E603
:102E1800BA4B04930333FFF7A3BBDDE90212002981
:102E28007FF474AEC2F31303002B00F0A480029B5E
:102E380008936DE601230A93219B002B3FDD1E4674
:102E4800109307930021172E61647FF7D8AB0122F6
:102E580004235B0003F11400B042114602F10102A1
:102E6800F7D96164FFF7CBBB01230A93219B069A2C
:102E7800134410930133012B1E460793B8BF012654
:102E8800E0E700230A93F1E700230A93D4E70A9BBB
:102E9800002B7FF4F6AE39465846FFF7E9F9069A53
:102EA800049D00F130030132069205F8013B4FF012
:102EB800000A7FE6DF1BC0E50227FFF7CDBB012331
:102EC80021930793FFF797BB03D1029BDB073FF5DD
:102ED80080AE6B1E01E013F8012D302A03F10105C5
:102EE800F9D084E63123069A01320692049A1370C7
:102EF8007DE60D9A002A00F0F380059A03F2334329
:102F08001A444D46059299440B9FA0E500F0F280C3
:102F1800DDE90801069B5D42794B05F00F0203EBE2
:102F2800C203D3E9002303F0F5FF2D11CDE9020117
:102F380000F0E08000230227724EEA0705D5D6E9A3
:102F4800002303F0E7FF01231F446D1006F1080674
:102F5800F3D1002B3FF499ABCDE90201FFF795BB04
:102F6800029B002B7FF471AEDDE90212C2F313035A
:102F7800002B40F04F81644B1340002B00F0FD8084
:102F8800059B09F101090133059301230893BFE566
:102F98000699002A01F10101069112DD5946012224
:102FA8002046059301F0DEFA3946834601F040FBDE
:102FB8000028059B40F3ED80392B00F0D880029B58
:102FC8003133B24688F800304E4610E67168204624
:102FD80001F096F80546002800F01F81336906F1D4
:102FE8000C0102339A000C3001F010F82946012236
:102FF800204601F0B7FA814650E6DDF808B0059C96
:10300800FFF7FBBB079BA9EB030520E500273E461E
:10301800CCE6069A392B02F10102069200F0A7804D
:103028000133B24688F800304E46E0E5069AB246CB
:10303800013206924E46BDE5DDE9020103F06AFF62
:10304800049BCDE9020183F80080119B012B22D05B
:10305800119B049ACDF838901344994600222B4BC3
:103068003046394603F056FF0F46064604F002FA8A
:10307800804603F0E5FE02460B463046394603F02B
:1030880091FD08F1300805F8018B4D4506460F46BD
:10309800E4D1DDF838900022DDE902011C4B03F091
:1030A80083FD32463B4604F0A7F900286BD1DDE9E1
:1030B80002230020164903F075FD32463B4604F012
:1030C800B9F900283FF4D8AB00E0154615F8013CE3
:1030D8006A1E302BF9D0129B01330693FFF78DBB84
:1030E800149B059AC3F136031A444D460592994438
:1030F8000B9FACE40227FFF7C8BA00BFD80200084C
:1031080058000008480100080000F07F0000244033
:103118000000E03F079B002B3FF482AB109D002D81
:103128007FF7AAABDDE9020100224E4B03F0F2FE65
:10313800CDE90201781C03F083FEDDE9022303F0E8
:10314800E9FE0022484B03F02FFD069AA1F15073C7
:10315800013ACDE90E0112920F931195FFF7B8BA13
:10316800069A0132069231221A70FFF746BB3922BD
:10317800B24688F800204E462BE50893C8E400279D
:103188003E46FFF7A1BB129B0133069315F8018C4D
:103198002FE47FF416AFDA077FF513AF0CE7434649
:1031A800A0461C46129BDDF838B00133069320E494
:1031B800DDF84490DDF84CA0DDF838B04446FFF760
:1031C8005BBB069A392B02F10102069208F1010550
:1031D800CDD0BAF1000F3FF7F2AEF2E6209B022BFA
:1031E80002DCCDF8188056E6109BCDE90683CCE5C5
:1031F800209B022BF8DC109BCDF81880079340E544
:10320800129B01330693FFF7F4BB3FF496ACC0F171
:103218003C0002E5029B089319E50246134B40F275
:10322800EA21134802F042FB00252046656429463E
:1032380000F066FF049050B90C4B00224FF4D57192
:103248000B4802F033FB0B4B0493FFF7E2B84FF047
:10325800FF33079310930123049A219522640A935C
:10326800FFF70EBB0000244000001C40E8020008E5
:10327800FC020008DC020008B1F90C302DE9F0412D
:103288009AB20C461107804648D4626843F400633A
:10329800002AA3815EDDA56A002D58D000229BB2CA
:1032A800D8F80060E169C8F8002013F4805255D1BD
:1032B80001234046A847431C67D0A389A56AE16952
:1032C8005F0705D56268236B801A0BB1E36BC01AE0
:1032D800024600234046A847451C49D1D8F800209B
:1032E800B4F90C30002A5DD01D2A01D0162A3AD133
:1032F8000021226923F40063C4E90021A381216B22
:10330800C8F8006019B304F14003994202D040465E
:1033180000F0CAF900202063BDE8F0812669B6B143
:10332800910718BF0023256808BF63692660AD1B95
:10333800A3600AE02B463246676AE1694046B8470F
:103348000028A5EB000506440ADD002DF2DC00206C
:10335800BDE8F081E26B002A9DDCF8E7206DAFE75D
:103368004FF0FF30A38943F04003A381BDE8F0810B
:103378000021B4F90C30226923F40063C4E9002168
:10338800DA04A381BBD52065B9E7D8F80030002B53
:1033980093D01D2B0FD0162B0DD0A38943F04003DB
:1033A800A381D5E723F400632169A381DB04C4E981
:1033B8000012A4D5E7E7C8F80060C8E710B50446CE
:1033C80082B008B1836B23B1B1F90C0048B902B0DF
:1033D80010BD019100F0F8F80199B1F90C0000282E
:1033E800F5D0204602B0BDE81040FFF745BF00BF4A
:1033F80020B1054B01461868FFF7E0BF034B0449AD
:10340800186800F06FBA00BF6800002024000008A8
:10341800C533000800207047014900F063BA00BFB7
:10342800815900082DE9F84F074600240423032199
:103438007D682A4807F53B72C7E9B912F863C7F8EF
:10344800E04205F15C00EB606C66C5E90044AC60E5
:10345800C5E90444AC6121460822FDF7CDFADFF83E
:1034680088B0BE68DFF884A0DFF88490DFF8848035
:103478001B4BC5E9075BC5E909A9C5F82C8021469E
:10348800F360082206F15C007466C6E90044B46083
:10349800C6E90444B461FDF7AFFAFD68114BC6E90B
:1034A800076BC6E909A9C6F82C802146EB606C6653
:1034B800C5E90044AC60C5E90444AC6105F15C00B1
:1034C8000822FDF799FA0123C5E9075BC5E909A9AF
:1034D800C5F82C80BB63BDE8F88F00BF2134000815
:1034E8000900010012000200A94A0008D14A000898
:1034F800114B0008314B00080020704770B5682553
:103508004A1E05FB02F50E4605F1740100F094FA17
:10351800044640B100210C30666005F16802216064
:10352800A060FDF769FA204670BD00BF1F4B70B55B
:103538001D680646AB6B4BB305F53875D5E9013404
:10354800013B05D51EE0013B5A1C04F1680419D063
:10355800B4F90C20002AF6D10025154B6566C4E99C
:103568000055A560C4E90455A5612946E360082211
:1035780004F15C00FDF740FAC4E90C55C4E91155A3
:10358800204670BD2C682CB12546D7E72846FFF7A2
:1035980049FFD1E704213046FFF7B0FF0446286011
:1035A8000028F1D10C233360EAE700BF24000008AB
:1035B8000100FFFF024B0349186800F093B900BFF0
:1035C8002400000881590008836B03B1704729E77C
:1035D800704700BF704700BF704700BF704700BF0B
:1035E800024B0349186800F059B900BF6800002071
:1035F8001D340008024B0349186800F04FB900BF9A
:103608006800002001350008F8B50C46234F06462F
:1036180000F072FDBB68C4F57E615D680F3125F06E
:103628000305294421F47F6121F00F01A1F580549D
:10363800B4F5805F07DB0021304601F01FFABB6854
:103648002B44984204D0304600F058FD0020F8BDC5
:103658006142304601F012FA01300DD0104BBA68C1
:1036680019682D1B45F001053046091B5560196086
:1036780000F044FD0120F8BD0021304601F0FEF9BC
:10368800BA68831A0F2BDEDD064943F001030C6884
:103698000349001B53600860D5E700BF9804002069
:1036A80024000020A008002000295ED0F8B50F46AD
:1036B800064600F021FD57F804CC754DA7F1080027
:1036C8002CF00103C218A9685468914224F003043D
:1036D80000F084801CF0010F546002EB040133D128
:1036E80057F808EC4968A0EB0E00876805F1080C4C
:1036F8006745734401F0010160D0D0F80CE0C7F8C9
:103708000CE0CEF80870002900F08D8043F001012C
:1037180041601360B3F5007F30D20122DB086C688A
:10372800991013448A40224305EBC30155F83340EE
:103738000839C0E902416A6045F83300E060304664
:10374800BDE8F84000F0DABC4968C9070ED4234444
:1037580005F1080C916843F0010461456BD0D2680B
:10376800CA6091604460C350D4E7704743F00101D8
:10377800B3F5007F47F8041C1360CED35A0A042A15
:1037880046D89A0902F13907FF0002F13801EC190D
:10379800EA59083C944255D0516821F003019942F6
:1037A80002D992689442F7D1D468C0E90224A06093
:1037B800D0603046BDE8F84000F0A0BC002962D1D6
:1037C800D2E90221234443F00104D1608A604460B5
:1037D800C3503046BDE8F84000F090BC1CF0010F23
:1037E800234407D157F8084C001BD0E902122344A0
:1037F800CA609160274A43F00101126841609A4209
:10380800A8609CD8244B30461968FFF7FDFE96E760
:10381800142A0AD9542A1DD81A0B02F16F07FF007F
:1038280002F16E01B3E7234494E702F15C07FF005D
:1038380002F15B01ABE7C5E90400C0E902CC4460D2
:10384800C3507CE701276B68891007FA01F1194317
:103858006960AAE7B2F5AA7F06D8DA0B02F1780701
:10386800FF0002F1770192E740F254518A4206D8EC
:103878009A0C02F17D07FF0002F17C0187E74FF403
:103888007E777E2183E743F001014160136056E7AC
:1038980098040020A4080020200000202DE9F04111
:1038A80010F538771AD088460026D7E90154013D2B
:1038B8000ED4A389013D012B06D9B4F90E3001338A
:1038C80002D02046C04706436B1C04F16804F0D1BF
:1038D8003F68002FE9D13046BDE8F0813E463046CA
:1038E800BDE8F0812DE9F84310F538761ED08846FA
:1038F80007464FF00009D6E90154013D10D4A389C9
:10390800013D012B08D9B4F90E30013304D021460A
:103918003846C04749EA00096B1C04F16804EED137
:103928003668002EE7D14846BDE8F883B1464846D8
:10393800BDE8F883F03070470048704798090020C8
:10394800004870479809002070B50C46B1F90E1070
:1039580096B0002915461E4614DB6A4602F0FEF8AA
:1039680000280FDB019A4FF4806302F47042A2F53D
:103978000052B2FA82F24FF40060520932602B60B2
:1039880016B070BD0023A289336012F0800004D005
:10399800402218462A6016B070BD4FF480632B6031
:1039A80016B070BD8A890B46920706D5012103F12E
:1039B800430259611A601A61704770B582B001AB51
:1039C8006A460C460646FFF7BFFF00990546304693
:1039D80000F032F8B4F90C3070B1164A0099F2636D
:1039E800019A43F08003A3812060C4E904018AB9E5
:1039F8002B43A38102B070BD9A05FBD4012123F0AB
:103A0800030304F1430243F00203A38161612260CE
:103A18002261EFE73046B4F90E1002F033FA10B91C
:103A2800B4F90C30E4E7A38923F0030343F001035E
:103A38001BB2DDE7213400082DE9F04F01F10B0539
:103A4800162D83B0064623D8102900F2B68000F060
:103A580053FB102518230220D14F3B445C68A3F187
:103A68000802944200F0B6806368E16823F003031B
:103A780023445A68A56842F00102E96030468D6027
:103A880008345A6000F03AFB204603B0BDE8F08FD6
:103A980035F0070500F19180A94200F28E8000F010
:103AA8002BFBB5F5FC7FC0F090816B0A00F08C8091
:103AB800042B00F26081AB0903F1390003F1380CE3
:103AC800C100B74F39444C680839A14206D10CE00F
:103AD800002A80F22981E468A14206D0636823F0B5
:103AE80003035A1B0F2AF3DD60463C69DFF8B4C2B2
:103AF80064457AD0636823F003035A1B0F2A00F346
:103B08007281002AC7E904CC80F26381B3F5007F93
:103B180080F00E810122DB08991013448A407968ED
:103B280057F833E007EBC3080A43A8F10801C4E9D2
:103B380002E17A6047F83340CEF80C400124831044
:103B48009C40944257D8144206D120F003006400E8
:103B5800144200F10400FAD007EBC009CE468046B3
:103B6800DEF80C309E4507D111E1002A80F21E8153
:103B7800DB689E4500F00B81596821F003014A1B60
:103B88000F2AF2DD45F001083046D3E902E41D446E
:103B980042F00106C3F80480CEF80C40C4F808E0EF
:103BA800C7E90455C5E902CC6E605A50009300F08D
:103BB800A5FA009B03F1080402E00C2300243360FB
:103BC800204603B0BDE8F08F4FF4007140204FF05D
:103BD8003F0C76E7DC68A34208BF02307FF444AFAD
:103BE8003C69DFF8C0C1644584D101247A68831038
:103BF8009C409442A7D9BC68636823F00308A84591
:103C080003D3A8EB05030F2B7EDCDFF89C91D7F8D4
:103C18000824D9F80030013204EB080A2B4400F0DC
:103C28002D8103F580530F3323F47F6B2BF00F0B9B
:103C38005946304600F022FF411C024600F0ED8054
:103C4800824500F2E880D9F804105944C9F80410F4
:103C58000B4600F04981D7F8081401311BBFA2EBCD
:103C68000A0A5344C7F80824C9F8043012F00703B5
:103C780000F01081C3F108010A44C3F58051934450
:103C88000831A1EB0B01C1F30B0A514630460193F1
:103C9800009200F0F3FE421CDDE9002300F04981A8
:103CA800831A03EB0A0BD9F804104BF001035144B3
:103CB800BC42BA60C9F80410536000F02181B8F121
:103CC8000F0F40F21F814FF0050C6368A8F10C003C
:103CD80020F0070003F00103034304EB000E0F2854
:103CE8006360CEE901CC00F22B8114465368D9F801
:103CF8002C208A42D9F8302038BFC9F82C108A42C3
:103D080038BFC9F830108AE045F0010243F00103DA
:103D1800254462603046BD6008346B6000F0EEF9FF
:103D2800204603B0BDE8F08F23445A68E168A1E655
:103D38005A0A042A69D9142A00F2BE8002F15C01E9
:103D4800C9005B3207EB010E7958AEF1080E8E45BB
:103D580000F097804A6822F003029A4202D98968E3
:103D68008E45F7D1D1F80CE07A68C4E9021ECEF886
:103D78000840CC60E2E6142B5FD9542B00F2A480F3
:103D88002B0B03F16F0003F16E0CC10099E608F1EB
:103D9800010818F0030F0EF1080E7FF4E1AE57E0AA
:103DA80098040020A0040020200000201C4619448C
:103DB8004A68DB6854F8085F42F001024A603046FE
:103DC800EB609D6000F09AF9FAE6E80805F108034F
:103DD80042E623445A68304642F001025A600834E9
:103DE80000F08CF9ECE645F0010E42F001012544A3
:103DF800C4F804E03046C7E90455C5E902CC696057
:103E0800E25000F07BF90834DAE69A0902F1390148
:103E1800C900383296E7BC4260D0BC68636823F0BA
:103E2800030BAB45ABEB050302D30F2B3FF76CAF8E
:103E3800304600F063F90024C2E603F15C0003F1A8
:103E48005B0CC1003DE659F808394B4540F09680B7
:103E580010F0030F00F1FF30F5D17B6823EA04036B
:103E68007B6064009C423FF6C6AE1CB9C3E66400A2
:103E780008F104081C42FAD040466DE603F1100B25
:103E8800D6E64FF001087B68921008FA02F21A434E
:103E98007A606AE702EB0B014942C1F30B0A51460B
:103EA80030460193009200F0E9FD431CDDE9002350
:103EB8007FF4F6AE9A46F6E6542A26D81A0B02F193
:103EC8006F01C9006E323DE7B3F5AA7F26D8EB0B28
:103ED80003F1780003F1770CC100F2E5D9F804305A
:103EE8005B44C9F80430B6E6CAF30B0000287FF437
:103EF800B2AE08EB0B03BC6843F001036360F6E65F
:103F08001446F4E60123536092E7B2F5AA7F21D85C
:103F1800DA0B02F17801C900773213E740F2545204
:103F2800934221D8AB0C03F17D0003F17C0CC10056
:103F3800C7E5083B9B44ABEB020B4FF0000AB2E627
:103F480004F108013046FFF7AFFBBC68D9F804104C
:103F58006368CCE640F254518A420BD89A0C02F1BD
:103F68007D01C9007C32EDE64FF47E717F204FF071
:103F78007E0CA6E54FF47E717E22E3E67B6870E74F
:103F8800830770B4CDB23DD0541E0AB30378AB4258
:103F98001FD0431C05E014F1FF3419D30278AA425C
:103FA80017D013F0030F184603F10103F3D1032CC4
:103FB80011D84CB30378AB420BD00444431C02E045
:103FC8000278AA4205D09C42184603F10103F7D1B2
:103FD800002070BC704702460E02B6B22E4346EA75
:103FE8000646136810467340A3F1013121EA030322
:103FF80013F0803F02F10402DCD1043C032C10468C
:10400800EFD8D6E71446D2E72046E2E7844641EAED
:10401800000313F0030349D1403A23D30B6803602C
:104028004B6843608B688360CB68C3600B6903612E
:104038004B6943618B698361CB69C3610B6A036216
:104048004B6A43628B6A8362CB6AC3620B6B0363FE
:104058004B6B43638B6B8363CB6BC36340304031E3
:10406800403ADBD230320BD30B6803604B684360B5
:104078008B688360CB68C36010301031103AF3D27C
:104088000C3205D351F8043B40F8043B043AF9D20A
:10409800043208D0D2071CBF11F8013B00F8013BDD
:1040A80001D30B8803806046704700BF082A13D3EA
:1040B8008B07B1D010F00303AED0C3F10403D21ABA
:1040C800DB071CBF11F8013B00F8013BA4D331F812
:1040D800023B20F8023B9FE7043AD9D3013A11F892
:1040E800013B00F8013BF9D20B7803704B78437021
:1040F8008B78837060467047704700BF704700BF79
:10410800C36C70B505460C464BB153F8240080B11A
:10411800026843F824200023C0E9033370BD21223C
:10412800042101F0E7FB0346E8640028EDD10020F4
:1041380070BD012101FA04F6721D2846920001F0B3
:10414800D9FB0028F3D0C0E90146E4E731B1C36CDC
:104158004A6853F82200086043F82210704700BFED
:10416800F0B54FF0000C0C4605460E6983B001F11E
:10417800140738680CF1010C81B202FB0133000C02
:10418800190C02FB00109BB203EB0043664547F88D
:10419800043B4FEA1043ECDC3BB1A268B24207DDB6
:1041A80004EB8602013653612661204603B0F0BD58
:1041B8006168284601310193FFF7A2FF019B07467A
:1041C800B8B1226904F10C01023292000C3001935B
:1041D800FFF71CFFEA6C6168019B52F82100206020
:1041E80042F821403C4604EB8602013653612661C1
:1041F800DBE70246024BB521024801F057FB00BF3E
:10420800E8020008300300082DE9F8431D46264E51
:10421800083386FB0346092D4FEAE37390460746A9
:10422800C3EB66020C46089E36DD012300215B00C5
:104238009A4201F10101FADC3846FFF761FF68B3E1
:104248000123B8F1090FC0E9043613DC4FF009085F
:104258000A3445450CDDA5EB0805254414F8013B57
:104268000146303B0A223846FFF77AFFA542F5D1CE
:10427800BDE8F88304F109094E46444416F8013BA9
:104288000146303B0A223846FFF76AFFB442F5D1AF
:10429800A8F108044C44DCE70021CDE70246034BB3
:1042A800CE21034801F002FB398EE338E80200080A
:1042B80030030008020C12040346CAB90304102094
:1042C80013F07F4F04BF1B02083013F0704F04BF78
:1042D8001B01043013F0404F04BF9B000230002B39
:1042E80005DB13F0804F00F1010008BF2020704764
:1042F8000020E5E70368014613F0070207D0DA0754
:1043080020D4980722D55B080B600120704798B22B
:10431800B0B910201B0C13F0FF0F04BF1B0A0830A4
:104328001A0704BF1B0904309A0704BF9B08023010
:10433800DA0703D45B0800F1010005D00B60704771
:104348001046E8E700207047202070479B080B6064
:104358000220704710B50C460121FFF7D1FE024636
:1043680018B10123C0E9043410BD034B4FF4A07108
:10437800024801F09BFA00BFE80200083003000879
:104388002DE9F04F0E69176983B0BE420C461546F9
:1043980005DB3A462B4637460D4616461C46AB68A3
:1043A800696807EB06084345B8BF0131FFF7A8FE67
:1043B800009000287FD0009B03F1140A0AEB8809BB
:1043C800CA4505D25346002143F8041B9945FBD83A
:1043D80004F1140E0EEB860B05F11403DE4503EB16
:1043E800870753D2CDF80480984605E0090C28D1F8
:1043F800F3450AF1040A47D95EF8041B8EB2002E71
:10440800F4D045465446002355F8041B20688AB268
:104418001FFA80FC06FB02C2090C000C06FB010116
:10442800134401EB13429BB243EA0243AF4244F800
:10443800043B4FEA1243E7D823605EF8041C090CDA
:10444800D6D0DAF8003040461A4654464FF0000CF1
:104458000588120C01FB05229BB2944443EA0C43E5
:1044680044F8043B50F8043B22681B0C95B201FB4E
:104478000353874203EB1C434FEA134CE8D8F34538
:1044880023600AF1040AB7D8DDF80480B8F1000FF8
:104498000BDD59F8043CA9F104091BB105E059F8F2
:1044A800043D13B9B8F10108F9D10098C0F810809B
:1044B80003B0BDE8F08F0246024B40F25D1102489E
:1044C80001F0F4F9E80200083003000812F00303D1
:1044D8002DE9F041144607462ED10D46A4101CD0F4
:1044E800BE6C96B3E3074FF0000806D4641014D0EE
:1044F8003068A8B10646E307F8D53246294638465B
:10450800FFF73EFFB5B16A68FB6C641053F82210E0
:10451800296043F822500546EAD12846BDE8F081D3
:10452800324631463846FFF72BFF3060C0F800802E
:104538000646E0E70546D9E7094A013B52F8232039
:104548000023FFF70DFE0546C8E740F27121384603
:10455800FFF700FF0023B86406460360C2E700BF08
:10456800480000082DE9F8430E694FEA62198B6884
:104578004E44741C9C420D4690460746496804DD2B
:104588005B009C4201F10101FADC3846FFF7B8FDF7
:10459800002842D0B9F1000F00F1140C0EDD63467B
:1045A800002109F105094FEA890900EB090243F8DE
:1045B800041B9342FBD1A9F11409CC44296905F1E4
:1045C800140318F01F0803EB810E1DD00022C8F158
:1045D8002009196801FA08F111434CF8041B53F833
:1045E800042B734522FA09F2F3D3002A18BF264692
:1045F800CCF80020FB6C6A68066153F82210296029
:1046080043F82250BDE8F883ACF1040C53F8042BAE
:104618009E454CF8042FF9D8ECE70246024B40F2CD
:10462800D911024801F042F9E802000830030008F5
:1046380030B40B6905460069C01A10D19B001435C7
:10464800143119442B4401E09D4208D253F8044D1B
:1046580051F8042D9442F7D003D24FF0FF3030BC0C
:104668007047012030BC70472DE9F04716460F69A6
:1046780012690D46BF1A002F6AD1920001F1140C7D
:1046880006F114010CEB0203114401E09C4562D2CF
:1046980053F8042D51F8044DA242F7D053D369685A
:1046A800FFF72EFD002860D0D5F810C03369143507
:1046B80006F11402C76005EB8C0E02EB830800F1CB
:1046C8001407002100E037463E4655F8049B52F88F
:1046D800044B1FFA89F30B441FFA84FA210CA3EB4D
:1046E8000A03C1EB194101EB23419BB243EA0143A1
:1046F80090454FEA214146F8043B2C46E3D8AE45A5
:1047080016D9324654F8047BBBB20B44191401EB9A
:1047180017419BB243EA0143A64542F8043B4FEADE
:104728002141EFD80EF1FF377F1B27F003073744ED
:104738002BB957F8043D0CF1FF3C002BF9D0C0F819
:1047480010C0BDE8F0872B46012735461E46A6E770
:10475800F9DB0027A3E70021FFF7D2FC60B10122B3
:104768000023C0E90423BDE8F0870246064B4FF456
:104778001071064801F09AF80246034B40F23221C4
:10478800024801F093F800BFE8020008300300086F
:104798000E4B0B40A3F15073002B02DD002019468D
:1047A80070475B421B15132B05DC4FF400220020D9
:1047B80042FA03F17047143B1E2BD6BF4FF000425C
:1047C800012322FA03F30021184670470000F07F06
:1047D8002DE9F041076900F1140606EB870757F841
:1047E800048C4046FFF766FDC0F120030A280B60E1
:1047F800A7F1040230DD9642A0F10B031DD257F851
:10480800080C23B3C3F1200120FA01F208FA03F8D7
:1048180048EA0208A7F1080248F07F55964200FAD4
:1048280003F045F4401503D257F80C3CCB4018432D
:10483800044629462046BDE8F0813BB108FA03F357
:1048480043F07F5545F440150020F1E7184648F03D
:104858007F5545F44015EBE796422CBF002257F8E8
:10486800082CC0F10B0328FA03F138BFDA4000F135
:10487800150341F07F5508FA03F345F4401543EA60
:10488800020420462946BDE8F08100BF70B5012129
:1048980082B016461C46FFF733FC054600284CD06C
:1048A8002346C4F30A54C3F313030CB143F480132F
:1048B800002E019322D068460096FFF71BFD0028C2
:1048C80037D0019BC0F12002009903FA02F20A4393
:1048D800C34001936A61002B14BF02210121AB611F
:1048E8002961B4B1069BA4F2334404441C60079BBD
:1048F800C0F135001860284602B070BD01A8FFF766
:10490800F9FC0123019A19462030C5E90432002C2C
:10491800E8D1069A05EB8103A0F2324010601869CD
:10492800FFF7C8FC079BC0EB41101860284602B08F
:1049380070BDDDE900236A61CDE70246024B40F213
:104948000A31024800F0B2FFE8020008300300080C
:104958002DE9F04383B00F4669460646FFF738FF56
:1049680004460D46384601A9FFF732FF36693A6911
:104978008946DDE90013B61ACB1A03EB4613002B60
:1049880080460BDD05EB03573D4642464B46204625
:10499800294602F0E9FB03B0BDE8F083C3EB03331B
:1049A80009EB03518946F0E71728D0B504460ADD1C
:1049B800002000260749084F32463B4602F0AAFA73
:1049C800013CF9D1D0BD054B03EBC004D4E9040187
:1049D800D0BD00BF0000F03F0000244048000008A0
:1049E80070B414694E1E02F11403761103EB8401AE
:1049F80001368B4200EB86060CD2041F53F8045B89
:104A0800994244F8045FF9D88B1A153B23F0030345
:104A180004331844864204D9002340F8043B8642F4
:104A2800FBD870BC704700BF03694A11934210B4A9
:104A380000F114040FDA04EB83039C421CD253F8F0
:104A4800040C043B18B114E053F8042D8AB99C42B5
:104A5800FAD310BC704704EB8203EEDD11F01F019E
:104A6800EBD054F8220020FA01F202FA01F1884250
:104A7800E3D0012010BC70470020EAE738B50023D6
:104A8800064C054608462360FBF76EFD431C00D024
:104A980038BD2368002BFBD02B6038BD58000020A0
:104AA80010B50C46B1F90E1001F0C8FA002803DB66
:104AB800236D0344236510BDA38923F48053A38188
:104AC80010BD00BF002070472DE9F041B1F90C403E
:104AD8009846E3050D461746B1F90E10064609D467
:104AE80024F48054AC8143463A463046BDE8F04150
:104AF80000F0C6BE0223002201F004FAB5F90C400A
:104B0800B5F90E10ECE700BF10B50C46B1F90E1060
:104B180001F0F8F9A389421C0EBF23F4805343F433
:104B280080532065A38110BDB1F90E1000F012BFAB
:104B380020F0030110F00300C0F1000051F8043B1D
:104B480000F1040C4FEACC0C6FF000021CBF22FAF3
:104B58000CF213434FF0010C4CEA0C2C4CEA0C4CB1
:104B6800A3EB0C0222EA030212EACC1204BF51F8AA
:104B7800043B0430F4D0C2F1000102EA0102B2FAA7
:104B880082F2C2F11F0200EBD20070472DE9F84F04
:104B98004B6E93469C042DD59368126843B30E461A
:104BA800074602F1080959E9025A5FEA9A0815D03E
:104BB8000024043D01E0A0450ED0324655F8041FFC
:104BC800384600F099FF431C04F10104F3D1002397
:104BD800CBE90133BDE8F88FDBF808302AF0030A87
:104BE800A3EB0A03CBF8083009F10809002BDAD146
:104BF8000020ECE700F0C6FF0023CBE90133BDE855
:104C0800F88F00BF936803B1C0E710B4184653602B
:104C180010BC70472DE9F04FADB01C460591904689
:104C2800CDE9063018B1836B002B00F0FB82059BA1
:104C3800B3F90C1018468AB2950407D45B6E41F498
:104C4800005223F400538281436692B2110740F167
:104C5800CA80059B1B69002B00F0C58002F01A0270
:104C68000A2A00F0CE8000230DF1700BDA46CDE958
:104C780010330A930393CDF83CB098F80030002B1A
:104C880000F0DD80252B00F0FB84454603E0252B52
:104C980000F0C58025466B786C1C002BF7D1B4EB6F
:104CA800080600F0CC80DDE9103201333244072BCE
:104CB800CAE90086CDE9103200F3B6800AF1080A85
:104CC800039A6B7832440392002B00F0B8800021DD
:104CD8004FF0000308460F464FF0FF398DF8373084
:104CE8006378049104F1010808F10108A3F1200296
:104CF800582A00F29A82DFE812F0FB009802980224
:104D0800F600980298029802980298029802E90020
:104D1800E4009802DF00C6009802C100B200B200A9
:104D2800B200B200B200B200B200B200B200980203
:104D3800980298029802980298029802980298029B
:104D480098022702980298029802980298029802FC
:104D580098029802980298026700980298029802AE
:104D68009802980259009802980212029802980232
:104D7800980298029802980298029802980298025B
:104D88008601590198029802980254015901980223
:104D98009802470198026A0269003E02420198029D
:104DA800220198025B0098029802030147F010075D
:104DB800BA06069B40F11E82073323F00703F3E887
:104DC800024506930123E4E147F0100717F020039A
:104DD80000F01E82069B073323F00703F3E8024521
:104DE80006930023D5E105990798FDF751F90028A6
:104DF80040F0EE84059B9A8902F01A020A2A7FF491
:104E080032AF059BB3F90E30002BFFF62CAF2346CB
:104E180042460599079800F0FDFC03901BE0B4EBAF
:104E280008063FF454AF3EE7002A00F0F3830FAAC8
:104E380005990798FFF7AAFE40B9DA4640E7119BA3
:104E480023B107980FAA0599FFF7A0FE059B9B8938
:104E58005B0600F1BD8403982DB0BDE8F08F0024F7
:104E6800A3F1300218F8013B04EB840402EB44047C
:104E7800A3F13002092AF5D9049437E747F08007EF
:104E880098F8003030E7444614F8013B2A2B00F02C
:104E9800A484A3F13002092AA0464FF000093FF686
:104EA80025AF18F8013B09EB890902EB4909A3F181
:104EB8003002092AF5D919E798F8003047F00407B5
:104EC80012E798F8003001212B200DE7069A98F890
:104ED800003052F8044B002C04940692BFF604AF3D
:104EE80062420492EAE747F0010798F80030FBE6CF
:104EF80098F8003000287FF4F7AE01212020F3E66F
:104F0800002940F05184C04AB8060A92069A40F136
:104F18000F81073222F00702F2E802450692FE07E7
:104F280040F1938154EA050200F08F8130228DF818
:104F3800393047F002078DF83820022329E14FF075
:104F48000003069C8DF8373054F8046B002E00F0EF
:104F5800FC83B9F1FF3F00F0B9834A46002130468F
:104F6800FFF70EF8002800F01084831B02939DF8C9
:104F780037300694019708934FF00009A8E147F0ED
:104F8800200798F80030AFE698F800306C2B03BF84
:104F980098F8013047F0200708F1010847F010079A
:104FA800A2E647F0400798F800309DE6002940F057
:104FB800F583BA06069B40F1D080073323F0070338
:104FC8001946F1E8022314461D460691002A73F19A
:104FD8000003C0F22B839DF83730B9F1FF3F0893E7
:104FE80000F0F38227F08003019354EA050340F0B0
:104FF800EB82B9F1000F40F0C6834FF000095E461E
:10500800CDF8089064E101254FF00001069B8DF86A
:10501800371053F8042B02958DF84820069312AEEA
:105028004FF000090197019B019C13F002030893BC
:1050380018BF0235DDE9101214F0840401F10103F0
:105048001846099404D1049C641B002C00F32182A7
:105058009DF837400AF1080C7CB101210DF13704A5
:105068000A440728CDE91002CAE9004100F3F28199
:105078000146E24601300CF1080C089BD3B102212D
:105088000EAB0A440728CDE91002CAE9003140F303
:10509800FA81002A00F0DF820FAA05990798FFF726
:1050A80075FD00287FF4D2AEDDE91012DA46481CFF
:1050B8000DF1780C099B802B00F01581029BA9EB60
:1050C8000307002F00F36F81029B07281A441192EF
:1050D800CAE9006310900CDD002A00F022820FAAB2
:1050E80005990798FFF752FD00287FF4AFAEDC461C
:1050F800119A019B590704D5049B5C1B002C00F3F3
:105108001982DDE90331A942ACBF5B185B1903932F
:10511800002A40F091810023DA461093ADE500297A
:1051280040F04983394AB8060A92069A3FF5F1AE2B
:1051380052F8044BF906069200F181827A0640F192
:105148007E82A4B20025EAE6002940F0378347F0C2
:105158001007BA06069B3FF530AF53F8044BFE061E
:10516800069300F15B827D0640F1588224B2E51770
:1051780022462B462AE7069B47F6300253F8044B93
:1051880000250693204B47F002070A930223ADF847
:105198003820002208928DF83720B9F1FF3F57D008
:1051A80027F08002019254EA050250D1B9F1000FAC
:1051B80074D1002B7FF421AF17F00103029300F0A4
:1051C800628230230DF16F068DF86F3080E0002980
:1051D80040F0EE82069ABC0652F8043B069200F1B3
:1051E8006282F80600F18C82790640F18982039A7E
:1051F8001A8042E553F8044BFE06069340F15A82A2
:1052080000250123C5E700BFB8020008A402000872
:10521800069A52F8044B069217F0100200F03C82EE
:105228000025B6E7FEF7D0F901E5002940F0A8828D
:10523800002B3FF404AE01258DF848304FF00003F1
:1052480002958DF8373012AEEAE60223A1E7019FF6
:10525800012B00F0BA81022B26D0594600E03146D6
:10526800E20842EA4572E80804F0070305461446D6
:10527800303354EA050201F8013C01F1FF36EED162
:10528800FC0721D5302B1FD03023023906F8013C0A
:10529800ABEB0103019702930E4619E0012B00F0D6
:1052A8007282022B019FD8D15E460A98230943EAED
:1052B8000573290904F00F020D461C46835C06F8A5
:1052C800013D54EA0503F1D1ABEB060301970293C4
:1052D800029B4B45B8BF4B461D46089B002B3FF42D
:1052E800A2AE01359FE6049B5F1B002F7FF7E6AE59
:1052F800102F40F36982BC4C0896D6462646C24613
:10530800079CA846059D07E001F1020C01460EF135
:10531800080E103F102F1DDD1023481C10320728DF
:105328001192CEF80060CEF804301090ECDD002A1F
:1053380000F08B800FAA29462046FFF727FC00289B
:105348007FF484ADDDE91012103F102FDE4601F125
:10535800010CE1DC4546D046F2463446089E0EF183
:1053680008033A44BCF1070F1192CAE90047CDF887
:1053780040C040F38A81002A00F0F2810FAA059903
:105388000798FFF703FC00287FF460ADDDE91012F1
:10539800029BDA46A9EB0307002F01F101000DF18A
:1053A800780C7FF791AE102F40F3D7818E4C08967A
:1053B800D4462646C2464FF01009A846079C059DCC
:1053C80007E001F1020E01460CF1080C103F102F06
:1053D80018DD481C103207281192CCE9006910909A
:1053E800EFDD22B30FAA29462046FFF7CFFB00289E
:1053F8007FF42CADDDE91012103F102FDC4601F1CF
:10540800010EE6DC45467046D046E2463446089E24
:105418000CF108033A4407281192CAE90047109092
:1054280000F3E680013003F1080C9A464CE64FF091
:10543800010E1146DC46C9E70FAA05990798FFF740
:10544800A5FB00283FF467AE00E54FF0010C1146BC
:10545800DE465EE7002A00F0F4800FAA0599079857
:10546800FFF794FB00287FF4F1ACDDE91012DA466F
:10547800481C0DF1780C00E6022201200EABCDE9A4
:105488001C320DF1780CE2460146481C0AF1080C62
:1054980010E6102C40F385810B9650468C46C24688
:1054A800524FA846059E079D194608E00CF1020ECA
:1054B8008C460830103C102C1ADD0CF10101102329
:1054C800103207291192076043601091EEDD1AB37C
:1054D8000FAA31462846FFF759FB00287FF4B6ACDF
:1054E800DDE910C2103C102C58460CF1010EE4DC2A
:1054F8004546D04682460B9E2244BEF1070F1192C4
:10550800CAE90074CDF840E000F3AB800AF1080A5C
:105518000EF1010071469BE594464FF0010E584686
:10552800C8E7019B1092580746D5049B5C1B002CCA
:1055380042DDDC46102C109940F3438110262B4F96
:10554800DDF81C90DDF814A006E0881C19460CF163
:10555800080C103C102C18DD4B1C1032072B119234
:10556800CCE900761093F0DD12B30FAA51464846F5
:10557800FFF70CFB00287FF469ACDDE91012103C42
:10558800102CDC4601F10100E6DC224407281192C8
:10559800CCE9007410907FF7B4AD6AB10FAA0599F1
:1055A8000798FFF7F3FA00287FF450AC119AA8E5A2
:1055B80001201146DC46CCE7DDE90332AA42ACBF44
:1055C8009B185B190393A6E5019F002D08BF0A2CC1
:1055D80080F0A380012330348DF86F400197029347
:1055E8000DF16F0674E600BF800100087001000825
:1055F800002A00F089800FAA05990798FFF7C6FAD4
:1056080000287FF423ACDDE91002DA4601300DF101
:10561800780C59E51092DA46FFF752BBE517224697
:105628002B46002A73F10003BFF6D5AC2D23644244
:105638008DF83730089365EB45050123ADE5002566
:105648006DE4089B002B3BD002220EABCDE91C3247
:105658000DF1780A19E70DF1780C01201146DA46A8
:1056680028E5002A3ED00FAA05990798FFF78EFA79
:1056780000287FF4EBABDDE91012DA46481CE7E4BA
:105688004446FFF724BB5E4622E60CF10100614662
:105698009A4603F1080C11E517F040031CBF1346A6
:1056A800A4B2002575E5039A1046D117C3E9000195
:1056B800FFF7E3BA7D0648BFA4B20025012368E5D9
:1056C80008460DF1780C1146DA46F3E430460694A4
:1056D8000197FFF72DFA9DF83730029008934FF0A5
:1056E8000009F5E59DF8371000293FD1089B002BEC
:1056F8007FF4C2AE11460DF1780C0120DA46DDE4E4
:10570800039A1A60FFF7B9BA0123029A1C961D92F0
:10571800119210930DF1780CEBE45E4601E004461B
:105728000D460A2200232046294601F0CBFE3032DE
:1057380006F8012D00230A222046294601F0C2FE60
:10574800002D08BF0A2CEAD2BEE54D46062D28BF1B
:10575800062506940295264E62E46346254C59E6D2
:105768000DF1780C01201146DA46A7E401210DF16C
:1057780037040A461D9108461C940DF1780C77E40D
:105788008DF8370054E5019F24E79DF83730CDF8B0
:105798000890069401978146089399E58DF837009B
:1057A80007E49E46144FA7E68DF83700FFF7ABBB1A
:1057B8008DF837000EE58DF83700B3E48DF8370023
:1057C800C5E40D4F481CE0E663460A4C8446C8E52C
:1057D8004FF0FF330393FFF73EBB069A98F801306A
:1057E80052F8045BA04645EAE5790692FFF77CBAD1
:1057F800CC020008800100087001000810B4044CB5
:1058080013460A460146206810BCFFF703BA00BFDA
:105818006800002070B50C4600264FF48065898921
:10582800ADF58D6D21F00201ADF80C100696616E94
:10583800E6891991ADF80E60E169666A07910996E3
:1058480069461AAE00960496029505950646FFF736
:10585800E1F9051E07DB30466946FDF7AFFD002874
:1058680018BF4FF0FF35BDF80C305B0603D5A38990
:1058780043F04003A38128460DF58D6D70BD00BF30
:10588800F8B50E460025084C114607461A4630461C
:105898002560FAF7D2FE431C00D0F8BD2368002B20
:1058A800FBD03B60F8BD00BF5800002000B50A4C93
:1058B8000546206885B01C46C06852B1074BCDE943
:1058C800013200912B462246054900F0B1F800F05C
:1058D8006FFF044B1A46F2E76800002064030008D3
:1058E800740300087003000808B513460022FFF788
:1058F800DDFF00BF10B502FB01F1FEF79DF804467D
:1059080068B150F8042C22F00302043A242A18D86B
:10591800132A06D802460023C2E9003393602046C2
:1059280010BD00231B2AC0E900330FD9242AC0E97F
:10593800023312BF00F11002C0E9043300F118026B
:10594800E9E70021FBF758F8204610BD00F10802EE
:10595800E1E700BF38B50023064C0546084623603A
:10596800FAF720FE431C00D038BD2368002BFBD07B
:105978002B6038BD5800002070B539B105460C467B
:1059880008B1836B83B3B4F90C3013B900263046E1
:1059980070BD21462846FDF76FFCE36A064633B121
:1059A800E169284698470028B8BF4FF0FF36A38919
:1059B8001B0620D4216B41B104F14003994202D067
:1059C8002846FDF771FE00232363616C21B1284648
:1059D800FDF76AFE00236364FDF7FAFD0023A38147
:1059E800FDF7F8FD304670BDFDF7EEFDB4F90C305B
:1059F800002BCBD0CDE721692846FDF755FED9E726
:105A0800024B01461868FFF7B7BF00BF68000020C7
:105A18000CB410B582B004AC54F8042B234601949E
:105A2800FFF7F8F802B0BDE8104002B0704700BFB9
:105A38000EB430B582B005AC54F8042B054D0146C0
:105A4800234628680194FFF7E5F802B0BDE8304026
:105A580003B07047680000202DE9F04383B0074683
:105A68008846144600F040FA012803D108F1FF33B4
:105A7800FE2B33D9424604F15C0301A9384600F0F5
:105A880041FE421C06462FD018B39DF8041000258D
:105A98000DF1040908E023685A1C226019700135C9
:105AA800B54216D215F80910A368013B002BA36074
:105AB800F1DAA269934201DB0A29ECD12246384681
:105AC80000F0C0FD431CEAD10646304603B0BDE8ED
